{
    "contractName": "NFTERC721",
    "abi": [
        {
            "inputs": [
                {
                    "internalType": "string",
                    "name": "name",
                    "type": "string"
                },
                {
                    "internalType": "string",
                    "name": "symbol",
                    "type": "string"
                }
            ],
            "stateMutability": "nonpayable",
            "type": "constructor"
        },
        {
            "inputs": [
                {
                    "internalType": "string",
                    "name": "str",
                    "type": "string"
                }
            ],
            "name": "StringTooLong",
            "type": "error"
        },
        {
            "anonymous": false,
            "inputs": [
                {
                    "indexed": true,
                    "internalType": "address",
                    "name": "owner",
                    "type": "address"
                },
                {
                    "indexed": true,
                    "internalType": "address",
                    "name": "approved",
                    "type": "address"
                },
                {
                    "indexed": true,
                    "internalType": "uint256",
                    "name": "tokenId",
                    "type": "uint256"
                }
            ],
            "name": "Approval",
            "type": "event"
        },
        {
            "anonymous": false,
            "inputs": [
                {
                    "indexed": true,
                    "internalType": "address",
                    "name": "owner",
                    "type": "address"
                },
                {
                    "indexed": true,
                    "internalType": "address",
                    "name": "operator",
                    "type": "address"
                },
                {
                    "indexed": false,
                    "internalType": "bool",
                    "name": "approved",
                    "type": "bool"
                }
            ],
            "name": "ApprovalForAll",
            "type": "event"
        },
        {
            "anonymous": false,
            "inputs": [
                {
                    "indexed": true,
                    "internalType": "address",
                    "name": "delegator",
                    "type": "address"
                },
                {
                    "indexed": true,
                    "internalType": "address",
                    "name": "fromDelegate",
                    "type": "address"
                },
                {
                    "indexed": true,
                    "internalType": "address",
                    "name": "toDelegate",
                    "type": "address"
                }
            ],
            "name": "DelegateChanged",
            "type": "event"
        },
        {
            "anonymous": false,
            "inputs": [
                {
                    "indexed": true,
                    "internalType": "address",
                    "name": "delegate",
                    "type": "address"
                },
                {
                    "indexed": false,
                    "internalType": "uint256",
                    "name": "previousBalance",
                    "type": "uint256"
                },
                {
                    "indexed": false,
                    "internalType": "uint256",
                    "name": "newBalance",
                    "type": "uint256"
                }
            ],
            "name": "DelegateVotesChanged",
            "type": "event"
        },
        {
            "anonymous": false,
            "inputs": [],
            "name": "EIP712DomainChanged",
            "type": "event"
        },
        {
            "anonymous": false,
            "inputs": [
                {
                    "indexed": true,
                    "internalType": "address",
                    "name": "previousOwner",
                    "type": "address"
                },
                {
                    "indexed": true,
                    "internalType": "address",
                    "name": "newOwner",
                    "type": "address"
                }
            ],
            "name": "OwnershipTransferred",
            "type": "event"
        },
        {
            "anonymous": false,
            "inputs": [
                {
                    "indexed": false,
                    "internalType": "address",
                    "name": "account",
                    "type": "address"
                }
            ],
            "name": "Paused",
            "type": "event"
        },
        {
            "anonymous": false,
            "inputs": [
                {
                    "indexed": true,
                    "internalType": "address",
                    "name": "from",
                    "type": "address"
                },
                {
                    "indexed": true,
                    "internalType": "address",
                    "name": "to",
                    "type": "address"
                },
                {
                    "indexed": true,
                    "internalType": "uint256",
                    "name": "tokenId",
                    "type": "uint256"
                }
            ],
            "name": "Transfer",
            "type": "event"
        },
        {
            "anonymous": false,
            "inputs": [
                {
                    "indexed": false,
                    "internalType": "address",
                    "name": "account",
                    "type": "address"
                }
            ],
            "name": "Unpaused",
            "type": "event"
        },
        {
            "inputs": [],
            "name": "CLOCK_MODE",
            "outputs": [
                {
                    "internalType": "string",
                    "name": "",
                    "type": "string"
                }
            ],
            "stateMutability": "view",
            "type": "function"
        },
        {
            "inputs": [],
            "name": "DOMAIN_SEPARATOR",
            "outputs": [
                {
                    "internalType": "bytes32",
                    "name": "",
                    "type": "bytes32"
                }
            ],
            "stateMutability": "view",
            "type": "function"
        },
        {
            "inputs": [
                {
                    "internalType": "address",
                    "name": "to",
                    "type": "address"
                },
                {
                    "internalType": "uint256",
                    "name": "tokenId",
                    "type": "uint256"
                }
            ],
            "name": "approve",
            "outputs": [],
            "stateMutability": "nonpayable",
            "type": "function"
        },
        {
            "inputs": [
                {
                    "internalType": "address",
                    "name": "owner",
                    "type": "address"
                }
            ],
            "name": "balanceOf",
            "outputs": [
                {
                    "internalType": "uint256",
                    "name": "",
                    "type": "uint256"
                }
            ],
            "stateMutability": "view",
            "type": "function"
        },
        {
            "inputs": [
                {
                    "internalType": "uint256",
                    "name": "tokenId",
                    "type": "uint256"
                }
            ],
            "name": "burn",
            "outputs": [],
            "stateMutability": "nonpayable",
            "type": "function"
        },
        {
            "inputs": [],
            "name": "clock",
            "outputs": [
                {
                    "internalType": "uint48",
                    "name": "",
                    "type": "uint48"
                }
            ],
            "stateMutability": "view",
            "type": "function"
        },
        {
            "inputs": [
                {
                    "internalType": "address",
                    "name": "delegatee",
                    "type": "address"
                }
            ],
            "name": "delegate",
            "outputs": [],
            "stateMutability": "nonpayable",
            "type": "function"
        },
        {
            "inputs": [
                {
                    "internalType": "address",
                    "name": "delegatee",
                    "type": "address"
                },
                {
                    "internalType": "uint256",
                    "name": "nonce",
                    "type": "uint256"
                },
                {
                    "internalType": "uint256",
                    "name": "expiry",
                    "type": "uint256"
                },
                {
                    "internalType": "uint8",
                    "name": "v",
                    "type": "uint8"
                },
                {
                    "internalType": "bytes32",
                    "name": "r",
                    "type": "bytes32"
                },
                {
                    "internalType": "bytes32",
                    "name": "s",
                    "type": "bytes32"
                }
            ],
            "name": "delegateBySig",
            "outputs": [],
            "stateMutability": "nonpayable",
            "type": "function"
        },
        {
            "inputs": [
                {
                    "internalType": "address",
                    "name": "account",
                    "type": "address"
                }
            ],
            "name": "delegates",
            "outputs": [
                {
                    "internalType": "address",
                    "name": "",
                    "type": "address"
                }
            ],
            "stateMutability": "view",
            "type": "function"
        },
        {
            "inputs": [],
            "name": "eip712Domain",
            "outputs": [
                {
                    "internalType": "bytes1",
                    "name": "fields",
                    "type": "bytes1"
                },
                {
                    "internalType": "string",
                    "name": "name",
                    "type": "string"
                },
                {
                    "internalType": "string",
                    "name": "version",
                    "type": "string"
                },
                {
                    "internalType": "uint256",
                    "name": "chainId",
                    "type": "uint256"
                },
                {
                    "internalType": "address",
                    "name": "verifyingContract",
                    "type": "address"
                },
                {
                    "internalType": "bytes32",
                    "name": "salt",
                    "type": "bytes32"
                },
                {
                    "internalType": "uint256[]",
                    "name": "extensions",
                    "type": "uint256[]"
                }
            ],
            "stateMutability": "view",
            "type": "function"
        },
        {
            "inputs": [
                {
                    "internalType": "uint256",
                    "name": "tokenId",
                    "type": "uint256"
                }
            ],
            "name": "getApproved",
            "outputs": [
                {
                    "internalType": "address",
                    "name": "",
                    "type": "address"
                }
            ],
            "stateMutability": "view",
            "type": "function"
        },
        {
            "inputs": [
                {
                    "internalType": "uint256",
                    "name": "timepoint",
                    "type": "uint256"
                }
            ],
            "name": "getPastTotalSupply",
            "outputs": [
                {
                    "internalType": "uint256",
                    "name": "",
                    "type": "uint256"
                }
            ],
            "stateMutability": "view",
            "type": "function"
        },
        {
            "inputs": [
                {
                    "internalType": "address",
                    "name": "account",
                    "type": "address"
                },
                {
                    "internalType": "uint256",
                    "name": "timepoint",
                    "type": "uint256"
                }
            ],
            "name": "getPastVotes",
            "outputs": [
                {
                    "internalType": "uint256",
                    "name": "",
                    "type": "uint256"
                }
            ],
            "stateMutability": "view",
            "type": "function"
        },
        {
            "inputs": [
                {
                    "internalType": "address",
                    "name": "owner",
                    "type": "address"
                },
                {
                    "internalType": "uint256",
                    "name": "index",
                    "type": "uint256"
                }
            ],
            "name": "getTokenId",
            "outputs": [
                {
                    "internalType": "uint256",
                    "name": "",
                    "type": "uint256"
                }
            ],
            "stateMutability": "view",
            "type": "function"
        },
        {
            "inputs": [
                {
                    "internalType": "address",
                    "name": "account",
                    "type": "address"
                }
            ],
            "name": "getVotes",
            "outputs": [
                {
                    "internalType": "uint256",
                    "name": "",
                    "type": "uint256"
                }
            ],
            "stateMutability": "view",
            "type": "function"
        },
        {
            "inputs": [
                {
                    "internalType": "address",
                    "name": "owner",
                    "type": "address"
                },
                {
                    "internalType": "address",
                    "name": "operator",
                    "type": "address"
                }
            ],
            "name": "isApprovedForAll",
            "outputs": [
                {
                    "internalType": "bool",
                    "name": "",
                    "type": "bool"
                }
            ],
            "stateMutability": "view",
            "type": "function"
        },
        {
            "inputs": [],
            "name": "name",
            "outputs": [
                {
                    "internalType": "string",
                    "name": "",
                    "type": "string"
                }
            ],
            "stateMutability": "view",
            "type": "function"
        },
        {
            "inputs": [
                {
                    "internalType": "address",
                    "name": "owner",
                    "type": "address"
                }
            ],
            "name": "nonces",
            "outputs": [
                {
                    "internalType": "uint256",
                    "name": "",
                    "type": "uint256"
                }
            ],
            "stateMutability": "view",
            "type": "function"
        },
        {
            "inputs": [],
            "name": "owner",
            "outputs": [
                {
                    "internalType": "address",
                    "name": "",
                    "type": "address"
                }
            ],
            "stateMutability": "view",
            "type": "function"
        },
        {
            "inputs": [
                {
                    "internalType": "uint256",
                    "name": "tokenId",
                    "type": "uint256"
                }
            ],
            "name": "ownerOf",
            "outputs": [
                {
                    "internalType": "address",
                    "name": "",
                    "type": "address"
                }
            ],
            "stateMutability": "view",
            "type": "function"
        },
        {
            "inputs": [],
            "name": "pause",
            "outputs": [],
            "stateMutability": "nonpayable",
            "type": "function"
        },
        {
            "inputs": [],
            "name": "paused",
            "outputs": [
                {
                    "internalType": "bool",
                    "name": "",
                    "type": "bool"
                }
            ],
            "stateMutability": "view",
            "type": "function"
        },
        {
            "inputs": [],
            "name": "renounceOwnership",
            "outputs": [],
            "stateMutability": "nonpayable",
            "type": "function"
        },
        {
            "inputs": [
                {
                    "internalType": "address",
                    "name": "to",
                    "type": "address"
                },
                {
                    "internalType": "string",
                    "name": "uri",
                    "type": "string"
                }
            ],
            "name": "safeMint",
            "outputs": [],
            "stateMutability": "nonpayable",
            "type": "function"
        },
        {
            "inputs": [
                {
                    "internalType": "address",
                    "name": "from",
                    "type": "address"
                },
                {
                    "internalType": "address",
                    "name": "to",
                    "type": "address"
                },
                {
                    "internalType": "uint256",
                    "name": "tokenId",
                    "type": "uint256"
                }
            ],
            "name": "safeTransferFrom",
            "outputs": [],
            "stateMutability": "nonpayable",
            "type": "function"
        },
        {
            "inputs": [
                {
                    "internalType": "address",
                    "name": "from",
                    "type": "address"
                },
                {
                    "internalType": "address",
                    "name": "to",
                    "type": "address"
                },
                {
                    "internalType": "uint256",
                    "name": "tokenId",
                    "type": "uint256"
                },
                {
                    "internalType": "bytes",
                    "name": "data",
                    "type": "bytes"
                }
            ],
            "name": "safeTransferFrom",
            "outputs": [],
            "stateMutability": "nonpayable",
            "type": "function"
        },
        {
            "inputs": [
                {
                    "internalType": "address",
                    "name": "operator",
                    "type": "address"
                },
                {
                    "internalType": "bool",
                    "name": "approved",
                    "type": "bool"
                }
            ],
            "name": "setApprovalForAll",
            "outputs": [],
            "stateMutability": "nonpayable",
            "type": "function"
        },
        {
            "inputs": [
                {
                    "internalType": "bytes4",
                    "name": "interfaceId",
                    "type": "bytes4"
                }
            ],
            "name": "supportsInterface",
            "outputs": [
                {
                    "internalType": "bool",
                    "name": "",
                    "type": "bool"
                }
            ],
            "stateMutability": "view",
            "type": "function"
        },
        {
            "inputs": [],
            "name": "symbol",
            "outputs": [
                {
                    "internalType": "string",
                    "name": "",
                    "type": "string"
                }
            ],
            "stateMutability": "view",
            "type": "function"
        },
        {
            "inputs": [
                {
                    "internalType": "uint256",
                    "name": "index",
                    "type": "uint256"
                }
            ],
            "name": "tokenByIndex",
            "outputs": [
                {
                    "internalType": "uint256",
                    "name": "",
                    "type": "uint256"
                }
            ],
            "stateMutability": "view",
            "type": "function"
        },
        {
            "inputs": [
                {
                    "internalType": "address",
                    "name": "owner",
                    "type": "address"
                },
                {
                    "internalType": "uint256",
                    "name": "index",
                    "type": "uint256"
                }
            ],
            "name": "tokenOfOwnerByIndex",
            "outputs": [
                {
                    "internalType": "uint256",
                    "name": "",
                    "type": "uint256"
                }
            ],
            "stateMutability": "view",
            "type": "function"
        },
        {
            "inputs": [
                {
                    "internalType": "uint256",
                    "name": "tokenId",
                    "type": "uint256"
                }
            ],
            "name": "tokenURI",
            "outputs": [
                {
                    "internalType": "string",
                    "name": "",
                    "type": "string"
                }
            ],
            "stateMutability": "view",
            "type": "function"
        },
        {
            "inputs": [],
            "name": "totalSupply",
            "outputs": [
                {
                    "internalType": "uint256",
                    "name": "",
                    "type": "uint256"
                }
            ],
            "stateMutability": "view",
            "type": "function"
        },
        {
            "inputs": [
                {
                    "internalType": "address",
                    "name": "from",
                    "type": "address"
                },
                {
                    "internalType": "address",
                    "name": "to",
                    "type": "address"
                },
                {
                    "internalType": "uint256",
                    "name": "tokenId",
                    "type": "uint256"
                }
            ],
            "name": "transferFrom",
            "outputs": [],
            "stateMutability": "nonpayable",
            "type": "function"
        },
        {
            "inputs": [
                {
                    "internalType": "address",
                    "name": "newOwner",
                    "type": "address"
                }
            ],
            "name": "transferOwnership",
            "outputs": [],
            "stateMutability": "nonpayable",
            "type": "function"
        },
        {
            "inputs": [],
            "name": "unpause",
            "outputs": [],
            "stateMutability": "nonpayable",
            "type": "function"
        }
    ],
    "bytecode": "6101606040523480156200001257600080fd5b5060405162003afa38038062003afa833981016040819052620000359162000325565b6040805180820190915260018152603160f81b60208201528290818360006200005f83826200041e565b5060016200006e82826200041e565b5050600b805460ff191690555062000086336200015f565b620000a1600c83620001b960201b62000e4c1790919060201c565b60e052620000bd81600d620001b9602090811b62000e4c17901c565b61010052815160208084019190912061012052815190820120610140524660a0526200014d6101205161014051604080517f8b73c3c69bb8fe3d512ecc4cf759cc79239f7b179b0ffacaa9a75d522b39400f60208201529081019290925260608201524660808201523060a082015260009060c00160405160208183030381529060405280519060200120905090565b60805250503060c05250620005449050565b600b80546001600160a01b03838116610100818102610100600160a81b031985161790945560405193909204169182907f8be0079c531659141344cd1fd0a4f28419497f9722a3daafe3b4186f6b6457e090600090a35050565b6000602083511015620001d957620001d18362000209565b905062000203565b82620001f0836200025560201b62000e7d1760201c565b90620001fd90826200041e565b50600090505b92915050565b600080829050601f8151111562000240578260405163305a27a960e01b8152600401620002379190620004ea565b60405180910390fd5b80516200024d826200051f565b179392505050565b90565b634e487b7160e01b600052604160045260246000fd5b60005b838110156200028b57818101518382015260200162000271565b50506000910152565b600082601f830112620002a657600080fd5b81516001600160401b0380821115620002c357620002c362000258565b604051601f8301601f19908116603f01168101908282118183101715620002ee57620002ee62000258565b816040528381528660208588010111156200030857600080fd5b6200031b8460208301602089016200026e565b9695505050505050565b600080604083850312156200033957600080fd5b82516001600160401b03808211156200035157600080fd5b6200035f8683870162000294565b935060208501519150808211156200037657600080fd5b50620003858582860162000294565b9150509250929050565b600181811c90821680620003a457607f821691505b602082108103620003c557634e487b7160e01b600052602260045260246000fd5b50919050565b601f8211156200041957600081815260208120601f850160051c81016020861015620003f45750805b601f850160051c820191505b81811015620004155782815560010162000400565b5050505b505050565b81516001600160401b038111156200043a576200043a62000258565b62000452816200044b84546200038f565b84620003cb565b602080601f8311600181146200048a5760008415620004715750858301515b600019600386901b1c1916600185901b17855562000415565b600085815260208120601f198616915b82811015620004bb578886015182559484019460019091019084016200049a565b5085821015620004da5787850151600019600388901b60f8161c191681555b5050505050600190811b01905550565b60208152600082518060208401526200050b8160408501602087016200026e565b601f01601f19169190910160400192915050565b80516020808301519190811015620003c55760001960209190910360031b1b16919050565b60805160a05160c05160e05161010051610120516101405161355b6200059f60003960006112440152600061121c01526000610b1f01526000610af401526000611177015260006111a1015260006111cb015261355b6000f3fe608060405234801561001057600080fd5b506004361061021c5760003560e01c80636352211e1161012557806395d89b41116100ad578063c3cda5201161007c578063c3cda52014610484578063c87b56dd14610497578063d204c45e146104aa578063e985e9c5146104bd578063f2fde38b146104f957600080fd5b806395d89b41146104435780639ab24eb01461044b578063a22cb4651461045e578063b88d4fde1461047157600080fd5b80638456cb59116100f45780638456cb59146103d857806384b0196e146103e05780638da5cb5b146103fb5780638e539e8c1461041157806391ddadf41461042457600080fd5b80636352211e1461039757806370a08231146103aa578063715018a6146103bd5780637ecebe00146103c557600080fd5b80633a46b1a8116101a85780634bf5d7e9116101775780634bf5d7e9146103325780634f6ccce71461033a578063587cde1e1461034d5780635c19a95c146103795780635c975abb1461038c57600080fd5b80633a46b1a8146102f15780633f4ba83a1461030457806342842e0e1461030c57806342966c681461031f57600080fd5b806318160ddd116101ef57806318160ddd1461029e57806323b872dd146102b057806329f99b9f146102c35780632f745c59146102d65780633644e515146102e957600080fd5b806301ffc9a71461022157806306fdde0314610249578063081812fc1461025e578063095ea7b314610289575b600080fd5b61023461022f366004612d50565b61050c565b60405190151581526020015b60405180910390f35b61025161051d565b6040516102409190612dbd565b61027161026c366004612dd0565b6105af565b6040516001600160a01b039091168152602001610240565b61029c610297366004612e05565b6105d6565b005b6008545b604051908152602001610240565b61029c6102be366004612e2f565b6106f0565b6102a26102d1366004612e05565b610722565b6102a26102e4366004612e05565b610735565b6102a26107cb565b6102a26102ff366004612e05565b6107da565b61029c61086b565b61029c61031a366004612e2f565b61087d565b61029c61032d366004612dd0565b610898565b6102516108c9565b6102a2610348366004612dd0565b61091e565b61027161035b366004612e6b565b6001600160a01b039081166000908152600e60205260409020541690565b61029c610387366004612e6b565b6109b1565b600b5460ff16610234565b6102716103a5366004612dd0565b6109c0565b6102a26103b8366004612e6b565b610a20565b61029c610aa6565b6102a26103d3366004612e6b565b610ab8565b61029c610ad6565b6103e8610ae6565b6040516102409796959493929190612e86565b600b5461010090046001600160a01b0316610271565b6102a261041f366004612dd0565b610b6f565b61042c610be9565b60405165ffffffffffff9091168152602001610240565b610251610bf4565b6102a2610459366004612e6b565b610c03565b61029c61046c366004612f1c565b610c24565b61029c61047f366004612fe4565b610c2f565b61029c610492366004613060565b610c67565b6102516104a5366004612dd0565b610d94565b61029c6104b83660046130c0565b610d9f565b6102346104cb366004613122565b6001600160a01b03918216600090815260056020908152604080832093909416825291909152205460ff1690565b61029c610507366004612e6b565b610dd6565b600061051782610e80565b92915050565b60606000805461052c90613155565b80601f016020809104026020016040519081016040528092919081815260200182805461055890613155565b80156105a55780601f1061057a576101008083540402835291602001916105a5565b820191906000526020600020905b81548152906001019060200180831161058857829003601f168201915b5050505050905090565b60006105ba82610ea5565b506000908152600460205260409020546001600160a01b031690565b60006105e1826109c0565b9050806001600160a01b0316836001600160a01b0316036106535760405162461bcd60e51b815260206004820152602160248201527f4552433732313a20617070726f76616c20746f2063757272656e74206f776e656044820152603960f91b60648201526084015b60405180910390fd5b336001600160a01b038216148061066f575061066f81336104cb565b6106e15760405162461bcd60e51b815260206004820152603d60248201527f4552433732313a20617070726f76652063616c6c6572206973206e6f7420746f60448201527f6b656e206f776e6572206f7220617070726f76656420666f7220616c6c000000606482015260840161064a565b6106eb8383610f04565b505050565b6106fb335b82610f72565b6107175760405162461bcd60e51b815260040161064a90613189565b6106eb838383610ff1565b600061072e8383610735565b9392505050565b600061074083610a20565b82106107a25760405162461bcd60e51b815260206004820152602b60248201527f455243373231456e756d657261626c653a206f776e657220696e646578206f7560448201526a74206f6620626f756e647360a81b606482015260840161064a565b506001600160a01b03919091166000908152600660209081526040808320938352929052205490565b60006107d561116a565b905090565b60006107e4610be9565b65ffffffffffff1682106108315760405162461bcd60e51b81526020600482015260146024820152730566f7465733a20667574757265206c6f6f6b75760641b604482015260640161064a565b61085b61083d83611295565b6001600160a01b0385166000908152600f60205260409020906112fe565b6001600160e01b03169392505050565b6108736113b3565b61087b611413565b565b6106eb83838360405180602001604052806000815250610c2f565b6108a1336106f5565b6108bd5760405162461bcd60e51b815260040161064a90613189565b6108c681611465565b50565b6060436108d4610be9565b65ffffffffffff16146108e657600080fd5b5060408051808201909152601d81527f6d6f64653d626c6f636b6e756d6265722666726f6d3d64656661756c74000000602082015290565b600061092960085490565b821061098c5760405162461bcd60e51b815260206004820152602c60248201527f455243373231456e756d657261626c653a20676c6f62616c20696e646578206f60448201526b7574206f6620626f756e647360a01b606482015260840161064a565b6008828154811061099f5761099f6131d6565b90600052602060002001549050919050565b336109bc818361146e565b5050565b6000818152600260205260408120546001600160a01b0316806105175760405162461bcd60e51b8152602060048201526018602482015277115490cdcc8c4e881a5b9d985b1a59081d1bdad95b88125160421b604482015260640161064a565b60006001600160a01b038216610a8a5760405162461bcd60e51b815260206004820152602960248201527f4552433732313a2061646472657373207a65726f206973206e6f7420612076616044820152683634b21037bbb732b960b91b606482015260840161064a565b506001600160a01b031660009081526003602052604090205490565b610aae6113b3565b61087b60006114e0565b6001600160a01b038116600090815260116020526040812054610517565b610ade6113b3565b61087b61153a565b600060608082808083610b1a7f0000000000000000000000000000000000000000000000000000000000000000600c611577565b610b457f0000000000000000000000000000000000000000000000000000000000000000600d611577565b60408051600080825260208201909252600f60f81b9b939a50919850469750309650945092509050565b6000610b79610be9565b65ffffffffffff168210610bc65760405162461bcd60e51b81526020600482015260146024820152730566f7465733a20667574757265206c6f6f6b75760641b604482015260640161064a565b610bda610bd283611295565b6010906112fe565b6001600160e01b031692915050565b60006107d54361161c565b60606001805461052c90613155565b6001600160a01b0381166000908152600f60205260408120610bda90611683565b6109bc3383836116bd565b610c393383610f72565b610c555760405162461bcd60e51b815260040161064a90613189565b610c618484848461178b565b50505050565b83421115610cb75760405162461bcd60e51b815260206004820152601860248201527f566f7465733a207369676e617475726520657870697265640000000000000000604482015260640161064a565b604080517fe48329057bfd03d55e49b547132e39cffd9c1820ad7b9d4c5307691425d15adf60208201526001600160a01b038816918101919091526060810186905260808101859052600090610d3190610d299060a001604051602081830303815290604052805190602001206117be565b8585856117eb565b9050610d3c81611813565b8614610d815760405162461bcd60e51b8152602060048201526014602482015273566f7465733a20696e76616c6964206e6f6e636560601b604482015260640161064a565b610d8b818861146e565b50505050505050565b60606105178261183b565b610da76113b3565b6000610db260125490565b9050610dc2601280546001019055565b610dcc8382611943565b6106eb818361195d565b610dde6113b3565b6001600160a01b038116610e435760405162461bcd60e51b815260206004820152602660248201527f4f776e61626c653a206e6577206f776e657220697320746865207a65726f206160448201526564647265737360d01b606482015260840161064a565b6108c6816114e0565b6000602083511015610e6857610e61836119f0565b9050610517565b81610e73848261323a565b5060009050610517565b90565b60006001600160e01b0319821663780e9d6360e01b1480610517575061051782611a2e565b6000818152600260205260409020546001600160a01b03166108c65760405162461bcd60e51b8152602060048201526018602482015277115490cdcc8c4e881a5b9d985b1a59081d1bdad95b88125160421b604482015260640161064a565b600081815260046020526040902080546001600160a01b0319166001600160a01b0384169081179091558190610f39826109c0565b6001600160a01b03167f8c5be1e5ebec7d5bd14f71427d1e84f3dd0314c0f7b2291e5b200ac8c7c3b92560405160405180910390a45050565b600080610f7e836109c0565b9050806001600160a01b0316846001600160a01b03161480610fc557506001600160a01b0380821660009081526005602090815260408083209388168352929052205460ff165b80610fe95750836001600160a01b0316610fde846105af565b6001600160a01b0316145b949350505050565b826001600160a01b0316611004826109c0565b6001600160a01b03161461102a5760405162461bcd60e51b815260040161064a906132fa565b6001600160a01b03821661108c5760405162461bcd60e51b8152602060048201526024808201527f4552433732313a207472616e7366657220746f20746865207a65726f206164646044820152637265737360e01b606482015260840161064a565b6110998383836001611a7e565b826001600160a01b03166110ac826109c0565b6001600160a01b0316146110d25760405162461bcd60e51b815260040161064a906132fa565b600081815260046020908152604080832080546001600160a01b03199081169091556001600160a01b0387811680865260038552838620805460001901905590871680865283862080546001019055868652600290945282852080549092168417909155905184937fddf252ad1be2c89b69c2b068fc378daa952ba7f163c4a11628f55a4df523b3ef91a46106eb8383836001611a95565b6000306001600160a01b037f0000000000000000000000000000000000000000000000000000000000000000161480156111c357507f000000000000000000000000000000000000000000000000000000000000000046145b156111ed57507f000000000000000000000000000000000000000000000000000000000000000090565b6107d5604080517f8b73c3c69bb8fe3d512ecc4cf759cc79239f7b179b0ffacaa9a75d522b39400f60208201527f0000000000000000000000000000000000000000000000000000000000000000918101919091527f000000000000000000000000000000000000000000000000000000000000000060608201524660808201523060a082015260009060c00160405160208183030381529060405280519060200120905090565b600063ffffffff8211156112fa5760405162461bcd60e51b815260206004820152602660248201527f53616665436173743a2076616c756520646f65736e27742066697420696e203360448201526532206269747360d01b606482015260840161064a565b5090565b81546000908181600581111561135b57600061131984611aa4565b6113239085613355565b60008881526020902090915081015463ffffffff908116908716101561134b57809150611359565b611356816001613368565b92505b505b600061136987878585611b8c565b905080156113a55761138e87611380600184613355565b600091825260209091200190565b5464010000000090046001600160e01b03166113a8565b60005b979650505050505050565b600b546001600160a01b0361010090910416331461087b5760405162461bcd60e51b815260206004820181905260248201527f4f776e61626c653a2063616c6c6572206973206e6f7420746865206f776e6572604482015260640161064a565b61141b611bea565b600b805460ff191690557f5db9ee0a495bf2e6ff9c91a7834c1ba4fdd244a5e8aa4e537bd38aeae4b073aa335b6040516001600160a01b03909116815260200160405180910390a1565b6108c681611c33565b6001600160a01b038281166000818152600e602052604080822080548686166001600160a01b0319821681179092559151919094169392849290917f3134e8a2e6d97e929a7e54011ea5485d7d196dd5f0ba4d4ef95803e8e3fc257f9190a46106eb81836114db86611c73565b611c7e565b600b80546001600160a01b03838116610100818102610100600160a81b031985161790945560405193909204169182907f8be0079c531659141344cd1fd0a4f28419497f9722a3daafe3b4186f6b6457e090600090a35050565b611542611dea565b600b805460ff191660011790557f62e78cea01bee320cd4e420270b5ea74000d11b0c9f74754ebdbfc544b05a2586114483390565b606060ff83161561158b57610e6183611e30565b81805461159790613155565b80601f01602080910402602001604051908101604052809291908181526020018280546115c390613155565b80156116105780601f106115e557610100808354040283529160200191611610565b820191906000526020600020905b8154815290600101906020018083116115f357829003601f168201915b50505050509050610517565b600065ffffffffffff8211156112fa5760405162461bcd60e51b815260206004820152602660248201527f53616665436173743a2076616c756520646f65736e27742066697420696e203460448201526538206269747360d01b606482015260840161064a565b805460009080156116b45761169d83611380600184613355565b5464010000000090046001600160e01b031661072e565b60009392505050565b816001600160a01b0316836001600160a01b03160361171e5760405162461bcd60e51b815260206004820152601960248201527f4552433732313a20617070726f766520746f2063616c6c657200000000000000604482015260640161064a565b6001600160a01b03838116600081815260056020908152604080832094871680845294825291829020805460ff191686151590811790915591519182527f17307eab39ab6107e8899845ad3d59bd9653f200f220920489ca2b5937696c31910160405180910390a3505050565b611796848484610ff1565b6117a284848484611e65565b610c615760405162461bcd60e51b815260040161064a9061337b565b60006105176117cb61116a565b8360405161190160f01b8152600281019290925260228201526042902090565b60008060006117fc87878787611f63565b9150915061180981612027565b5095945050505050565b6001600160a01b03811660009081526011602052604090208054600181018255905b50919050565b606061184682610ea5565b6000828152600a60205260408120805461185f90613155565b80601f016020809104026020016040519081016040528092919081815260200182805461188b90613155565b80156118d85780601f106118ad576101008083540402835291602001916118d8565b820191906000526020600020905b8154815290600101906020018083116118bb57829003601f168201915b5050505050905060006118f660408051602081019091526000815290565b90508051600003611908575092915050565b81511561193a5780826040516020016119229291906133cd565b60405160208183030381529060405292505050919050565b610fe984612171565b6109bc8282604051806020016040528060008152506121e4565b6000828152600260205260409020546001600160a01b03166119d85760405162461bcd60e51b815260206004820152602e60248201527f45524337323155524953746f726167653a2055524920736574206f66206e6f6e60448201526d32bc34b9ba32b73a103a37b5b2b760911b606482015260840161064a565b6000828152600a602052604090206106eb828261323a565b600080829050601f81511115611a1b578260405163305a27a960e01b815260040161064a9190612dbd565b8051611a26826133fc565b179392505050565b60006001600160e01b031982166380ac58cd60e01b1480611a5f57506001600160e01b03198216635b5e139f60e01b145b8061051757506301ffc9a760e01b6001600160e01b0319831614610517565b611a86611dea565b506001610c6184848484612217565b506001610c6184848484612357565b600081600003611ab657506000919050565b60006001611ac384612367565b901c6001901b90506001818481611adc57611adc613420565b048201901c90506001818481611af457611af4613420565b048201901c90506001818481611b0c57611b0c613420565b048201901c90506001818481611b2457611b24613420565b048201901c90506001818481611b3c57611b3c613420565b048201901c90506001818481611b5457611b54613420565b048201901c90506001818481611b6c57611b6c613420565b048201901c905061072e81828581611b8657611b86613420565b046123fb565b60005b81831015611be2576000611ba38484612411565b60008781526020902090915063ffffffff86169082015463ffffffff161115611bce57809250611bdc565b611bd9816001613368565b93505b50611b8f565b509392505050565b600b5460ff1661087b5760405162461bcd60e51b815260206004820152601460248201527314185d5cd8589b194e881b9bdd081c185d5cd95960621b604482015260640161064a565b611c3c8161242c565b6000818152600a602052604090208054611c5590613155565b1590506108c6576000818152600a602052604081206108c691612cf0565b600061051782610a20565b816001600160a01b0316836001600160a01b031614158015611ca05750600081115b156106eb576001600160a01b03831615611d48576001600160a01b0383166000908152600f602052604081208190611ce3906124d9611cde866124e5565b61254e565b6001600160e01b031691506001600160e01b03169150846001600160a01b03167fdec2bacdd2f05b59de34da9b523dff8be42e5e38e818c82fdb0bae774387a7248383604051611d3d929190918252602082015260400190565b60405180910390a250505b6001600160a01b038216156106eb576001600160a01b0382166000908152600f602052604081208190611d8190612597611cde866124e5565b6001600160e01b031691506001600160e01b03169150836001600160a01b03167fdec2bacdd2f05b59de34da9b523dff8be42e5e38e818c82fdb0bae774387a7248383604051611ddb929190918252602082015260400190565b60405180910390a25050505050565b600b5460ff161561087b5760405162461bcd60e51b815260206004820152601060248201526f14185d5cd8589b194e881c185d5cd95960821b604482015260640161064a565b60408051602080825281830190925260609160ff84169160009180820181803683375050509182525060208101929092525090565b60006001600160a01b0384163b15611f5b57604051630a85bd0160e11b81526001600160a01b0385169063150b7a0290611ea9903390899088908890600401613436565b6020604051808303816000875af1925050508015611ee4575060408051601f3d908101601f19168201909252611ee191810190613473565b60015b611f41573d808015611f12576040519150601f19603f3d011682016040523d82523d6000602084013e611f17565b606091505b508051600003611f395760405162461bcd60e51b815260040161064a9061337b565b805181602001fd5b6001600160e01b031916630a85bd0160e11b149050610fe9565b506001610fe9565b6000807f7fffffffffffffffffffffffffffffff5d576e7357a4501ddfe92f46681b20a0831115611f9a575060009050600361201e565b6040805160008082526020820180845289905260ff881692820192909252606081018690526080810185905260019060a0016020604051602081039080840390855afa158015611fee573d6000803e3d6000fd5b5050604051601f1901519150506001600160a01b0381166120175760006001925092505061201e565b9150600090505b94509492505050565b600081600481111561203b5761203b613490565b036120435750565b600181600481111561205757612057613490565b036120a45760405162461bcd60e51b815260206004820152601860248201527f45434453413a20696e76616c6964207369676e61747572650000000000000000604482015260640161064a565b60028160048111156120b8576120b8613490565b036121055760405162461bcd60e51b815260206004820152601f60248201527f45434453413a20696e76616c6964207369676e6174757265206c656e67746800604482015260640161064a565b600381600481111561211957612119613490565b036108c65760405162461bcd60e51b815260206004820152602260248201527f45434453413a20696e76616c6964207369676e6174757265202773272076616c604482015261756560f01b606482015260840161064a565b606061217c82610ea5565b600061219360408051602081019091526000815290565b905060008151116121b3576040518060200160405280600081525061072e565b806121bd846125a3565b6040516020016121ce9291906133cd565b6040516020818303038152906040529392505050565b6121ee8383612636565b6121fb6000848484611e65565b6106eb5760405162461bcd60e51b815260040161064a9061337b565b612223848484846127d9565b60018111156122925760405162461bcd60e51b815260206004820152603560248201527f455243373231456e756d657261626c653a20636f6e7365637574697665207472604482015274185b9cd9995c9cc81b9bdd081cdd5c1c1bdc9d1959605a1b606482015260840161064a565b816001600160a01b0385166122ee576122e981600880546000838152600960205260408120829055600182018355919091527ff3f7a9fe364faab93b216da50a3214154f22a0a2b415b23a84c8169e8b636ee30155565b612311565b836001600160a01b0316856001600160a01b031614612311576123118582612861565b6001600160a01b03841661232d57612328816128fe565b612350565b846001600160a01b0316846001600160a01b0316146123505761235084826129ad565b5050505050565b6123628484836129f1565b610c61565b600080608083901c1561237c57608092831c92015b604083901c1561238e57604092831c92015b602083901c156123a057602092831c92015b601083901c156123b257601092831c92015b600883901c156123c457600892831c92015b600483901c156123d657600492831c92015b600283901c156123e857600292831c92015b600183901c156105175760010192915050565b600081831061240a578161072e565b5090919050565b600061242060028484186134a6565b61072e90848416613368565b6000612437826109c0565b9050612447816000846001611a7e565b612450826109c0565b600083815260046020908152604080832080546001600160a01b03199081169091556001600160a01b0385168085526003845282852080546000190190558785526002909352818420805490911690555192935084927fddf252ad1be2c89b69c2b068fc378daa952ba7f163c4a11628f55a4df523b3ef908390a46109bc816000846001611a95565b600061072e82846134c8565b60006001600160e01b038211156112fa5760405162461bcd60e51b815260206004820152602760248201527f53616665436173743a2076616c756520646f65736e27742066697420696e20326044820152663234206269747360c81b606482015260840161064a565b60008061258a61256c61255f610be9565b65ffffffffffff16611295565b61258261257888611683565b868863ffffffff16565b879190612a67565b915091505b935093915050565b600061072e82846134ef565b606060006125b083612a75565b600101905060008167ffffffffffffffff8111156125d0576125d0612f58565b6040519080825280601f01601f1916602001820160405280156125fa576020820181803683370190505b5090508181016020015b600019016f181899199a1a9b1b9c1cb0b131b232b360811b600a86061a8153600a850494508461260457509392505050565b6001600160a01b03821661268c5760405162461bcd60e51b815260206004820181905260248201527f4552433732313a206d696e7420746f20746865207a65726f2061646472657373604482015260640161064a565b6000818152600260205260409020546001600160a01b0316156126f15760405162461bcd60e51b815260206004820152601c60248201527f4552433732313a20746f6b656e20616c7265616479206d696e74656400000000604482015260640161064a565b6126ff600083836001611a7e565b6000818152600260205260409020546001600160a01b0316156127645760405162461bcd60e51b815260206004820152601c60248201527f4552433732313a20746f6b656e20616c7265616479206d696e74656400000000604482015260640161064a565b6001600160a01b038216600081815260036020908152604080832080546001019055848352600290915280822080546001600160a01b0319168417905551839291907fddf252ad1be2c89b69c2b068fc378daa952ba7f163c4a11628f55a4df523b3ef908290a46109bc600083836001611a95565b6001811115610c61576001600160a01b0384161561281f576001600160a01b03841660009081526003602052604081208054839290612819908490613355565b90915550505b6001600160a01b03831615610c61576001600160a01b03831660009081526003602052604081208054839290612856908490613368565b909155505050505050565b6000600161286e84610a20565b6128789190613355565b6000838152600760205260409020549091508082146128cb576001600160a01b03841660009081526006602090815260408083208584528252808320548484528184208190558352600790915290208190555b5060009182526007602090815260408084208490556001600160a01b039094168352600681528383209183525290812055565b60085460009061291090600190613355565b60008381526009602052604081205460088054939450909284908110612938576129386131d6565b906000526020600020015490508060088381548110612959576129596131d6565b60009182526020808320909101929092558281526009909152604080822084905585825281205560088054806129915761299161350f565b6001900381819060005260206000200160009055905550505050565b60006129b883610a20565b6001600160a01b039093166000908152600660209081526040808320868452825280832085905593825260079052919091209190915550565b6001600160a01b038316612a1357612a106010612597611cde846124e5565b50505b6001600160a01b038216612a3557612a3260106124d9611cde846124e5565b50505b6001600160a01b038381166000908152600e60205260408082205485841683529120546106eb92918216911683611c7e565b60008061258a858585612b4d565b60008072184f03e93ff9f4daa797ed6e38ed64bf6a1f0160401b8310612ab45772184f03e93ff9f4daa797ed6e38ed64bf6a1f0160401b830492506040015b6d04ee2d6d415b85acef81000000008310612ae0576d04ee2d6d415b85acef8100000000830492506020015b662386f26fc100008310612afe57662386f26fc10000830492506010015b6305f5e1008310612b16576305f5e100830492506008015b6127108310612b2a57612710830492506004015b60648310612b3c576064830492506002015b600a83106105175760010192915050565b825460009081908015612c96576000612b6b87611380600185613355565b60408051808201909152905463ffffffff8082168084526401000000009092046001600160e01b031660208401529192509087161015612bed5760405162461bcd60e51b815260206004820152601b60248201527f436865636b706f696e743a2064656372656173696e67206b6579730000000000604482015260640161064a565b805163ffffffff808816911603612c365784612c0e88611380600186613355565b80546001600160e01b03929092166401000000000263ffffffff909216919091179055612c86565b6040805180820190915263ffffffff80881682526001600160e01b0380881660208085019182528b54600181018d5560008d81529190912094519151909216640100000000029216919091179101555b60200151925083915061258f9050565b50506040805180820190915263ffffffff80851682526001600160e01b0380851660208085019182528854600181018a5560008a81529182209551925190931664010000000002919093161792019190915590508161258f565b508054612cfc90613155565b6000825580601f10612d0c575050565b601f0160209004906000526020600020908101906108c691905b808211156112fa5760008155600101612d26565b6001600160e01b0319811681146108c657600080fd5b600060208284031215612d6257600080fd5b813561072e81612d3a565b60005b83811015612d88578181015183820152602001612d70565b50506000910152565b60008151808452612da9816020860160208601612d6d565b601f01601f19169290920160200192915050565b60208152600061072e6020830184612d91565b600060208284031215612de257600080fd5b5035919050565b80356001600160a01b0381168114612e0057600080fd5b919050565b60008060408385031215612e1857600080fd5b612e2183612de9565b946020939093013593505050565b600080600060608486031215612e4457600080fd5b612e4d84612de9565b9250612e5b60208501612de9565b9150604084013590509250925092565b600060208284031215612e7d57600080fd5b61072e82612de9565b60ff60f81b881681526000602060e081840152612ea660e084018a612d91565b8381036040850152612eb8818a612d91565b606085018990526001600160a01b038816608086015260a0850187905284810360c0860152855180825283870192509083019060005b81811015612f0a57835183529284019291840191600101612eee565b50909c9b505050505050505050505050565b60008060408385031215612f2f57600080fd5b612f3883612de9565b915060208301358015158114612f4d57600080fd5b809150509250929050565b634e487b7160e01b600052604160045260246000fd5b600067ffffffffffffffff80841115612f8957612f89612f58565b604051601f8501601f19908116603f01168101908282118183101715612fb157612fb1612f58565b81604052809350858152868686011115612fca57600080fd5b858560208301376000602087830101525050509392505050565b60008060008060808587031215612ffa57600080fd5b61300385612de9565b935061301160208601612de9565b925060408501359150606085013567ffffffffffffffff81111561303457600080fd5b8501601f8101871361304557600080fd5b61305487823560208401612f6e565b91505092959194509250565b60008060008060008060c0878903121561307957600080fd5b61308287612de9565b95506020870135945060408701359350606087013560ff811681146130a657600080fd5b9598949750929560808101359460a0909101359350915050565b600080604083850312156130d357600080fd5b6130dc83612de9565b9150602083013567ffffffffffffffff8111156130f857600080fd5b8301601f8101851361310957600080fd5b61311885823560208401612f6e565b9150509250929050565b6000806040838503121561313557600080fd5b61313e83612de9565b915061314c60208401612de9565b90509250929050565b600181811c9082168061316957607f821691505b60208210810361183557634e487b7160e01b600052602260045260246000fd5b6020808252602d908201527f4552433732313a2063616c6c6572206973206e6f7420746f6b656e206f776e6560408201526c1c881bdc88185c1c1c9bdd9959609a1b606082015260800190565b634e487b7160e01b600052603260045260246000fd5b601f8211156106eb57600081815260208120601f850160051c810160208610156132135750805b601f850160051c820191505b818110156132325782815560010161321f565b505050505050565b815167ffffffffffffffff81111561325457613254612f58565b613268816132628454613155565b846131ec565b602080601f83116001811461329d57600084156132855750858301515b600019600386901b1c1916600185901b178555613232565b600085815260208120601f198616915b828110156132cc578886015182559484019460019091019084016132ad565b50858210156132ea5787850151600019600388901b60f8161c191681555b5050505050600190811b01905550565b60208082526025908201527f4552433732313a207472616e736665722066726f6d20696e636f72726563742060408201526437bbb732b960d91b606082015260800190565b634e487b7160e01b600052601160045260246000fd5b818103818111156105175761051761333f565b808201808211156105175761051761333f565b60208082526032908201527f4552433732313a207472616e7366657220746f206e6f6e20455243373231526560408201527131b2b4bb32b91034b6b83632b6b2b73a32b960711b606082015260800190565b600083516133df818460208801612d6d565b8351908301906133f3818360208801612d6d565b01949350505050565b805160208083015191908110156118355760001960209190910360031b1b16919050565b634e487b7160e01b600052601260045260246000fd5b6001600160a01b038581168252841660208201526040810183905260806060820181905260009061346990830184612d91565b9695505050505050565b60006020828403121561348557600080fd5b815161072e81612d3a565b634e487b7160e01b600052602160045260246000fd5b6000826134c357634e487b7160e01b600052601260045260246000fd5b500490565b6001600160e01b038281168282160390808211156134e8576134e861333f565b5092915050565b6001600160e01b038181168382160190808211156134e8576134e861333f565b634e487b7160e01b600052603160045260246000fdfea26469706673582212205d0884338c53a6bbc9e940744bcf64d25170475edf59ad787f6b74ea086ef1e464736f6c63430008110033",
    "sourcePath": "c:/Users/User/Desktop/C#/Xhibiter/Xhibiter/Contracts/NFTERC721.sol",
    "compiler": {
        "name": "solc",
        "version": "0.8.17+commit.8df45f5f"
    },
    "functionHashes": {
        "CLOCK_MODE()": "4bf5d7e9",
        "DOMAIN_SEPARATOR()": "3644e515",
        "approve(address,uint256)": "095ea7b3",
        "balanceOf(address)": "70a08231",
        "burn(uint256)": "42966c68",
        "clock()": "91ddadf4",
        "delegate(address)": "5c19a95c",
        "delegateBySig(address,uint256,uint256,uint8,bytes32,bytes32)": "c3cda520",
        "delegates(address)": "587cde1e",
        "eip712Domain()": "84b0196e",
        "getApproved(uint256)": "081812fc",
        "getPastTotalSupply(uint256)": "8e539e8c",
        "getPastVotes(address,uint256)": "3a46b1a8",
        "getTokenId(address,uint256)": "29f99b9f",
        "getVotes(address)": "9ab24eb0",
        "isApprovedForAll(address,address)": "e985e9c5",
        "name()": "06fdde03",
        "nonces(address)": "7ecebe00",
        "owner()": "8da5cb5b",
        "ownerOf(uint256)": "6352211e",
        "pause()": "8456cb59",
        "paused()": "5c975abb",
        "renounceOwnership()": "715018a6",
        "safeMint(address,string)": "d204c45e",
        "safeTransferFrom(address,address,uint256)": "42842e0e",
        "safeTransferFrom(address,address,uint256,bytes)": "b88d4fde",
        "setApprovalForAll(address,bool)": "a22cb465",
        "supportsInterface(bytes4)": "01ffc9a7",
        "symbol()": "95d89b41",
        "tokenByIndex(uint256)": "4f6ccce7",
        "tokenOfOwnerByIndex(address,uint256)": "2f745c59",
        "tokenURI(uint256)": "c87b56dd",
        "totalSupply()": "18160ddd",
        "transferFrom(address,address,uint256)": "23b872dd",
        "transferOwnership(address)": "f2fde38b",
        "unpause()": "3f4ba83a"
    },
    "gasEstimates": {
        "creation": {
            "codeDepositCost": "2731800",
            "executionCost": "infinite",
            "totalCost": "infinite"
        },
        "external": {
            "CLOCK_MODE()": "infinite",
            "DOMAIN_SEPARATOR()": "infinite",
            "approve(address,uint256)": "infinite",
            "balanceOf(address)": "2657",
            "burn(uint256)": "infinite",
            "clock()": "457",
            "delegate(address)": "infinite",
            "delegateBySig(address,uint256,uint256,uint8,bytes32,bytes32)": "infinite",
            "delegates(address)": "2656",
            "eip712Domain()": "infinite",
            "getApproved(uint256)": "4815",
            "getPastTotalSupply(uint256)": "infinite",
            "getPastVotes(address,uint256)": "infinite",
            "getTokenId(address,uint256)": "5065",
            "getVotes(address)": "infinite",
            "isApprovedForAll(address,address)": "infinite",
            "name()": "infinite",
            "nonces(address)": "2683",
            "owner()": "2431",
            "ownerOf(uint256)": "2584",
            "pause()": "infinite",
            "paused()": "2426",
            "renounceOwnership()": "infinite",
            "safeMint(address,string)": "infinite",
            "safeTransferFrom(address,address,uint256)": "infinite",
            "safeTransferFrom(address,address,uint256,bytes)": "infinite",
            "setApprovalForAll(address,bool)": "26772",
            "supportsInterface(bytes4)": "infinite",
            "symbol()": "infinite",
            "tokenByIndex(uint256)": "6782",
            "tokenOfOwnerByIndex(address,uint256)": "5042",
            "tokenURI(uint256)": "infinite",
            "totalSupply()": "2327",
            "transferFrom(address,address,uint256)": "infinite",
            "transferOwnership(address)": "28501",
            "unpause()": "infinite"
        },
        "internal": {
            "_afterTokenTransfer(address,address,uint256,uint256)": "infinite",
            "_beforeTokenTransfer(address,address,uint256,uint256)": "infinite",
            "_burn(uint256)": "infinite"
        }
    }
}